{
  "_format": "hh-sol-artifact-1",
  "contractName": "AggregatorExecutor",
  "sourceName": "contracts/AggregatorExecutor.sol",
  "abi": [
    {
      "stateMutability": "nonpayable",
      "type": "fallback"
    },
    {
      "inputs": [
        {
          "internalType": "bytes",
          "name": "",
          "type": "bytes"
        }
      ],
      "name": "executeSwap",
      "outputs": [],
      "stateMutability": "payable",
      "type": "function"
    },
    {
      "stateMutability": "payable",
      "type": "receive"
    }
  ],
  "bytecode": "0x6080604052348015600f57600080fd5b50611efe8061001f6000396000f3fe6080604052600436106100225760003560e01c8063985f61a11461035e57610029565b3661002957005b34801561003557600080fd5b50600036606060006004905060005b60011561007e57813560e01c905063d37ac04b63ffffffff168163ffffffff16031561007e576020826100779190611237565b9150610044565b600080600484013560601c9150601884013560f81c9050600160ff168160ff1614806100b05750600260ff168160ff16145b156101e157608484146100f8576040517f08c379a00000000000000000000000000000000000000000000000000000000081526004016100ef906112c8565b60405180910390fd5b60008060043591506024359050600260ff168360ff160361014c5761014b6019876101239190611237565b306000851361013b5784610136906112f2565b610146565b83610145906112f2565b5b61037a565b5b8373ffffffffffffffffffffffffffffffffffffffff1663a9059cbb33600085136101775783610179565b845b6040518363ffffffff1660e01b815260040161019692919061138a565b6020604051808303816000875af11580156101b5573d6000803e3d6000fd5b505050506040513d601f19601f820116820180604052508101906101d991906113f5565b50505061033d565b600360ff168160ff16036103015760a48414610232576040517f08c379a00000000000000000000000000000000000000000000000000000000081526004016102299061146e565b60405180910390fd5b6000806000602435925060443591506019870135905061027a602060198961025a9190611237565b6102649190611237565b30600086116102735784610275565b855b61037a565b8473ffffffffffffffffffffffffffffffffffffffff1663a9059cbb33836040518363ffffffff1660e01b81526004016102b592919061138a565b6020604051808303816000875af11580156102d4573d6000803e3d6000fd5b505050506040513d601f19601f820116820180604052508101906102f891906113f5565b5050505061033c565b6040517f08c379a0000000000000000000000000000000000000000000000000000000008152600401610333906114da565b60405180910390fd5b5b60405180602001604052806000815250945050505050915050805190602001f35b6103786004803603810190610373919061155f565b6110a3565b005b6000610385846110c8565b90505b60011561109c57610398816110f7565b6103d7576040517f08c379a00000000000000000000000000000000000000000000000000000000081526004016103ce906115f8565b60405180910390fd5b60006103e28261110d565b9050603f8160ff16116106805760006103fa83611124565b905060003090506000606060006001861660ff161461041f5761041c86611124565b97505b60006002861660ff16146104395761043686611124565b92505b60006004861660ff161415915060006008861660ff16146104d1578373ffffffffffffffffffffffffffffffffffffffff166370a08231306040518263ffffffff1660e01b815260040161048d9190611618565b602060405180830381865afa1580156104aa573d6000803e3d6000fd5b505050506040513d601f19601f820116820180604052508101906104ce919061165f565b96505b60006010861660ff16146105075761ffff6104eb8761114c565b61ffff16886104fa919061168c565b61050491906116fd565b96505b60006020861660ff16146105705761051e86611163565b965063d37ac04b8460026105476105348a61114c565b61ffff168a61118790919063ffffffff16565b60405160200161055a9493929190611870565b604051602081830303815290604052905061059c565b63d37ac04b84600160405160200161058a939291906118ba565b60405160208183030381529060405290505b6001876105a991906118f7565b96506000808973ffffffffffffffffffffffffffffffffffffffff1663128acb0886868c886105ec5773fffd8963efd1fc6a506488495d951d5263988d256105f3565b6401000276a45b886040518663ffffffff1660e01b81526004016106149594939291906119b3565b60408051808303816000875af1158015610632573d6000803e3d6000fd5b505050506040513d601f19601f820116820180604052508101906106569190611a39565b91509150836106655781610667565b805b610670906112f2565b9850849950505050505050611096565b605f8160ff16116109d55760003090506000606060006001851660ff16146106ae576106ab85611124565b96505b6000808873ffffffffffffffffffffffffffffffffffffffff16630902f1ac6040518163ffffffff1660e01b8152600401606060405180830381865afa1580156106fc573d6000803e3d6000fd5b505050506040513d601f19601f820116820180604052508101906107209190611aeb565b50915091506000806002881660ff16146107405761073d88611124565b95505b60006004881660ff161415945060006008881660ff161461083957600061076689611124565b73ffffffffffffffffffffffffffffffffffffffff166370a082318c6040518263ffffffff1660e01b815260040161079e9190611618565b602060405180830381865afa1580156107bb573d6000803e3d6000fd5b505050506040513d601f19601f820116820180604052508101906107df919061165f565b9050856107ec57826107ee565b835b6dffffffffffffffffffffffffffff168110610833578561080f5782610811565b835b6dffffffffffffffffffffffffffff168161082c91906118f7565b9950610837565b8099505b505b60006010881660ff16146108ae5761085088611163565b9850600061085d89611124565b905063d37ac04b8160038c6108876108748e61114c565b61ffff168e61118790919063ffffffff16565b60405160200161089b959493929190611b5f565b6040516020818303038152906040529450505b6001896108bb91906118f7565b9850600080866108cc5783856108cf565b84845b6dffffffffffffffffffffffffffff1691506dffffffffffffffffffffffffffff16915060006103e58c610903919061168c565b9050806103e884610914919061168c565b61091e9190611237565b828261092a919061168c565b61093491906116fd565b93508c73ffffffffffffffffffffffffffffffffffffffff1663022c0d9f8961095d5785610960565b60005b8a61096c57600061096e565b865b8c8b6040518563ffffffff1660e01b815260040161098f9493929190611bba565b600060405180830381600087803b1580156109a957600080fd5b505af11580156109bd573d6000803e3d6000fd5b50505050839b50889c50505050505050505050611095565b607f8160ff1611156110945760838160ff1611610b635760006109f783611124565b9050610a0283611124565b945060006001831660ff1614610a8f578073ffffffffffffffffffffffffffffffffffffffff166370a08231306040518263ffffffff1660e01b8152600401610a4b9190611618565b602060405180830381865afa158015610a68573d6000803e3d6000fd5b505050506040513d601f19601f82011682018060405250810190610a8c919061165f565b93505b60006002831660ff1614610ac55761ffff610aa98461114c565b61ffff1685610ab8919061168c565b610ac291906116fd565b93505b6001841115610b5d57600184610adb91906118f7565b93508073ffffffffffffffffffffffffffffffffffffffff1663a9059cbb86866040518363ffffffff1660e01b8152600401610b1892919061138a565b6020604051808303816000875af1158015610b37573d6000803e3d6000fd5b505050506040513d601f19601f82011682018060405250810190610b5b91906113f5565b505b50611093565b60878160ff1611610d1e576000610b7983611124565b905047935060006001831660ff1614610bb45761ffff610b988461114c565b61ffff1685610ba7919061168c565b610bb191906116fd565b93505b600184610bc191906118f7565b935060008173ffffffffffffffffffffffffffffffffffffffff1685604051610be990611c2c565b60006040518083038185875af1925050503d8060008114610c26576040519150601f19603f3d011682016040523d82523d6000602084013e610c2b565b606091505b5050905080610c6f576040517f08c379a0000000000000000000000000000000000000000000000000000000008152600401610c6690611c8d565b60405180910390fd5b60006002841660ff1614610d1757600185610c8a91906118f7565b9450610c9584611124565b95508173ffffffffffffffffffffffffffffffffffffffff1663a9059cbb87876040518363ffffffff1660e01b8152600401610cd292919061138a565b6020604051808303816000875af1158015610cf1573d6000803e3d6000fd5b505050506040513d601f19601f82011682018060405250810190610d1591906113f5565b505b5050611092565b60898160ff1611610e2e57610d3282611124565b935047925060006001821660ff1614610d6d5761ffff610d518361114c565b61ffff1684610d60919061168c565b610d6a91906116fd565b92505b600183610d7a91906118f7565b925060008473ffffffffffffffffffffffffffffffffffffffff1684604051610da290611c2c565b60006040518083038185875af1925050503d8060008114610ddf576040519150601f19603f3d011682016040523d82523d6000602084013e610de4565b606091505b5050905080610e28576040517f08c379a0000000000000000000000000000000000000000000000000000000008152600401610e1f90611cf9565b60405180910390fd5b50611091565b608b8160ff1611610f51576000610e4483611124565b905060006001831660ff1614610ed1578073ffffffffffffffffffffffffffffffffffffffff166370a08231306040518263ffffffff1660e01b8152600401610e8d9190611618565b602060405180830381865afa158015610eaa573d6000803e3d6000fd5b505050506040513d601f19601f82011682018060405250810190610ece919061165f565b93505b600184610ede91906118f7565b93508073ffffffffffffffffffffffffffffffffffffffff16632e1a7d4d856040518263ffffffff1660e01b8152600401610f199190611d19565b600060405180830381600087803b158015610f3357600080fd5b505af1158015610f47573d6000803e3d6000fd5b5050505050611090565b608c8160ff1611611043576000610f6783611124565b905060008173ffffffffffffffffffffffffffffffffffffffff166370a08231306040518263ffffffff1660e01b8152600401610fa49190611618565b602060405180830381865afa158015610fc1573d6000803e3d6000fd5b505050506040513d601f19601f82011682018060405250810190610fe5919061165f565b905080604051602001610ff89190611d8b565b6040516020818303038152906040526040517f08c379a000000000000000000000000000000000000000000000000000000000815260040161103a9190611df5565b60405180910390fd5b608d8160ff161161105557505061109e565b6040517f08c379a000000000000000000000000000000000000000000000000000000000815260040161108790611e63565b60405180910390fd5b5b5b5b5b5b5b50610388565b505b505050565b60008060443560601c915060803560801c90506110c260a0838361037a565b50505050565b600060405190506020810160408201604052823560f81c60018401825260148102600185010183525050919050565b6000808251905060003690508110915050919050565b60008151803560f81c915060018101835250919050565b60008151803560f81c60018201845260208401516014820281013560601c9350505050919050565b60008151803560f01c915060028101835250919050565b60008151803560f81c600182013560f01c80821b9350600383018552505050919050565b60606000835190508281018452600036829085846111a59190611237565b926111b293929190611e8d565b8080601f016020809104026020016040519081016040528093929190818152602001838380828437600081840152601f19601f8201169050808301925050505050505091505092915050565b6000819050919050565b7f4e487b7100000000000000000000000000000000000000000000000000000000600052601160045260246000fd5b6000611242826111fe565b915061124d836111fe565b925082820190508082111561126557611264611208565b5b92915050565b600082825260208201905092915050565b7f496e636f7272656374205633416476616e6365642063616c6c6261636b000000600082015250565b60006112b2601d8361126b565b91506112bd8261127c565b602082019050919050565b600060208201905081810360008301526112e1816112a5565b9050919050565b6000819050919050565b60006112fd826112e8565b91507f8000000000000000000000000000000000000000000000000000000000000000820361132f5761132e611208565b5b816000039050919050565b600073ffffffffffffffffffffffffffffffffffffffff82169050919050565b60006113658261133a565b9050919050565b6113758161135a565b82525050565b611384816111fe565b82525050565b600060408201905061139f600083018561136c565b6113ac602083018461137b565b9392505050565b600080fd5b600080fd5b60008115159050919050565b6113d2816113bd565b81146113dd57600080fd5b50565b6000815190506113ef816113c9565b92915050565b60006020828403121561140b5761140a6113b3565b5b6000611419848285016113e0565b91505092915050565b7f496e636f7272656374205632416476616e6365642063616c6c6261636b000000600082015250565b6000611458601d8361126b565b915061146382611422565b602082019050919050565b600060208201905081810360008301526114878161144b565b9050919050565b7f556e6b6e6f776e2063616c6c6261636b00000000000000000000000000000000600082015250565b60006114c460108361126b565b91506114cf8261148e565b602082019050919050565b600060208201905081810360008301526114f3816114b7565b9050919050565b600080fd5b600080fd5b600080fd5b60008083601f84011261151f5761151e6114fa565b5b8235905067ffffffffffffffff81111561153c5761153b6114ff565b5b60208301915083600182028301111561155857611557611504565b5b9250929050565b60008060208385031215611576576115756113b3565b5b600083013567ffffffffffffffff811115611594576115936113b8565b5b6115a085828601611509565b92509250509250929050565b7f4f70636f6465206f6f6200000000000000000000000000000000000000000000600082015250565b60006115e2600a8361126b565b91506115ed826115ac565b602082019050919050565b60006020820190508181036000830152611611816115d5565b9050919050565b600060208201905061162d600083018461136c565b92915050565b61163c816111fe565b811461164757600080fd5b50565b60008151905061165981611633565b92915050565b600060208284031215611675576116746113b3565b5b60006116838482850161164a565b91505092915050565b6000611697826111fe565b91506116a2836111fe565b92508282026116b0816111fe565b915082820484148315176116c7576116c6611208565b5b5092915050565b7f4e487b7100000000000000000000000000000000000000000000000000000000600052601260045260246000fd5b6000611708826111fe565b9150611713836111fe565b925082611723576117226116ce565b5b828204905092915050565b600063ffffffff82169050919050565b60008160e01b9050919050565b60006117568261173e565b9050919050565b61176e6117698261172e565b61174b565b82525050565b60008160601b9050919050565b600061178c82611774565b9050919050565b600061179e82611781565b9050919050565b6117b66117b18261135a565b611793565b82525050565b600060ff82169050919050565b60008160f81b9050919050565b60006117e1826117c9565b9050919050565b6117f96117f4826117bc565b6117d6565b82525050565b600081519050919050565b600081905092915050565b60005b83811015611833578082015181840152602081019050611818565b60008484015250505050565b600061184a826117ff565b611854818561180a565b9350611864818560208601611815565b80840191505092915050565b600061187c828761175d565b60048201915061188c82866117a5565b60148201915061189c82856117e8565b6001820191506118ac828461183f565b915081905095945050505050565b60006118c6828661175d565b6004820191506118d682856117a5565b6014820191506118e682846117e8565b600182019150819050949350505050565b6000611902826111fe565b915061190d836111fe565b925082820390508181111561192557611924611208565b5b92915050565b611934816113bd565b82525050565b611943816112e8565b82525050565b6119528161133a565b82525050565b600082825260208201905092915050565b6000601f19601f8301169050919050565b6000611985826117ff565b61198f8185611958565b935061199f818560208601611815565b6119a881611969565b840191505092915050565b600060a0820190506119c8600083018861136c565b6119d5602083018761192b565b6119e2604083018661193a565b6119ef6060830185611949565b8181036080830152611a01818461197a565b90509695505050505050565b611a16816112e8565b8114611a2157600080fd5b50565b600081519050611a3381611a0d565b92915050565b60008060408385031215611a5057611a4f6113b3565b5b6000611a5e85828601611a24565b9250506020611a6f85828601611a24565b9150509250929050565b60006dffffffffffffffffffffffffffff82169050919050565b611a9c81611a79565b8114611aa757600080fd5b50565b600081519050611ab981611a93565b92915050565b611ac88161172e565b8114611ad357600080fd5b50565b600081519050611ae581611abf565b92915050565b600080600060608486031215611b0457611b036113b3565b5b6000611b1286828701611aaa565b9350506020611b2386828701611aaa565b9250506040611b3486828701611ad6565b9150509250925092565b6000819050919050565b611b59611b54826111fe565b611b3e565b82525050565b6000611b6b828861175d565b600482019150611b7b82876117a5565b601482019150611b8b82866117e8565b600182019150611b9b8285611b48565b602082019150611bab828461183f565b91508190509695505050505050565b6000608082019050611bcf600083018761137b565b611bdc602083018661137b565b611be9604083018561136c565b8181036060830152611bfb818461197a565b905095945050505050565b50565b6000611c1660008361180a565b9150611c2182611c06565b600082019050919050565b6000611c3782611c09565b9150819050919050565b7f57726170206661696c6564000000000000000000000000000000000000000000600082015250565b6000611c77600b8361126b565b9150611c8282611c41565b602082019050919050565b60006020820190508181036000830152611ca681611c6a565b9050919050565b7f5472616e73666572204e6174697665206661696c656400000000000000000000600082015250565b6000611ce360168361126b565b9150611cee82611cad565b602082019050919050565b60006020820190508181036000830152611d1281611cd6565b9050919050565b6000602082019050611d2e600083018461137b565b92915050565b600081905092915050565b7f546f6b656e20616d6f756e743a20000000000000000000000000000000000000600082015250565b6000611d75600e83611d34565b9150611d8082611d3f565b600e82019050919050565b6000611d9682611d68565b9150611da28284611b48565b60208201915081905092915050565b600081519050919050565b6000611dc782611db1565b611dd1818561126b565b9350611de1818560208601611815565b611dea81611969565b840191505092915050565b60006020820190508181036000830152611e0f8184611dbc565b905092915050565b7f496e76616c6964204f70636f6465000000000000000000000000000000000000600082015250565b6000611e4d600e8361126b565b9150611e5882611e17565b602082019050919050565b60006020820190508181036000830152611e7c81611e40565b9050919050565b600080fd5b600080fd5b60008085851115611ea157611ea0611e83565b5b83861115611eb257611eb1611e88565b5b600185028301915084860390509450949250505056fea26469706673582212205e705bd70215f9026cd0f001073c20dec0650c8bfa3ec59602fe9c3518be9da464736f6c634300081a0033",
  "linkReferences": {},
  "deployedLinkReferences": {}
}